{
  "contractName": "DoonTaggle",
  "abi": [
    {
      "anonymous": false,
      "inputs": [
        {
          "indexed": false,
          "internalType": "bytes10",
          "name": "tagID",
          "type": "bytes10"
        },
        {
          "indexed": false,
          "internalType": "uint256",
          "name": "numTags",
          "type": "uint256"
        }
      ],
      "name": "LogNewTag",
      "type": "event"
    },
    {
      "anonymous": false,
      "inputs": [
        {
          "indexed": false,
          "internalType": "bytes10",
          "name": "tagID",
          "type": "bytes10"
        }
      ],
      "name": "LogPlateAccess",
      "type": "event"
    },
    {
      "anonymous": false,
      "inputs": [
        {
          "indexed": false,
          "internalType": "address",
          "name": "reportedBy",
          "type": "address"
        },
        {
          "indexed": false,
          "internalType": "bytes8",
          "name": "plateNo",
          "type": "bytes8"
        },
        {
          "indexed": false,
          "internalType": "bytes2",
          "name": "state",
          "type": "bytes2"
        },
        {
          "indexed": false,
          "internalType": "enum DoonTaggle.Behaviors",
          "name": "behavior",
          "type": "uint8"
        }
      ],
      "name": "LogReported",
      "type": "event"
    },
    {
      "anonymous": false,
      "inputs": [
        {
          "indexed": true,
          "internalType": "address",
          "name": "previousOwner",
          "type": "address"
        }
      ],
      "name": "OwnershipRenounced",
      "type": "event"
    },
    {
      "anonymous": false,
      "inputs": [
        {
          "indexed": true,
          "internalType": "address",
          "name": "previousOwner",
          "type": "address"
        },
        {
          "indexed": true,
          "internalType": "address",
          "name": "newOwner",
          "type": "address"
        }
      ],
      "name": "OwnershipTransferred",
      "type": "event"
    },
    {
      "anonymous": false,
      "inputs": [],
      "name": "Pause",
      "type": "event"
    },
    {
      "anonymous": false,
      "inputs": [],
      "name": "Unpause",
      "type": "event"
    },
    {
      "payable": false,
      "stateMutability": "nonpayable",
      "type": "fallback"
    },
    {
      "constant": true,
      "inputs": [],
      "name": "owner",
      "outputs": [
        {
          "internalType": "address",
          "name": "",
          "type": "address"
        }
      ],
      "payable": false,
      "stateMutability": "view",
      "type": "function"
    },
    {
      "constant": false,
      "inputs": [],
      "name": "pause",
      "outputs": [],
      "payable": false,
      "stateMutability": "nonpayable",
      "type": "function"
    },
    {
      "constant": true,
      "inputs": [],
      "name": "paused",
      "outputs": [
        {
          "internalType": "bool",
          "name": "",
          "type": "bool"
        }
      ],
      "payable": false,
      "stateMutability": "view",
      "type": "function"
    },
    {
      "constant": false,
      "inputs": [],
      "name": "renounceOwnership",
      "outputs": [],
      "payable": false,
      "stateMutability": "nonpayable",
      "type": "function"
    },
    {
      "constant": false,
      "inputs": [
        {
          "internalType": "address",
          "name": "_newOwner",
          "type": "address"
        }
      ],
      "name": "transferOwnership",
      "outputs": [],
      "payable": false,
      "stateMutability": "nonpayable",
      "type": "function"
    },
    {
      "constant": false,
      "inputs": [],
      "name": "unpause",
      "outputs": [],
      "payable": false,
      "stateMutability": "nonpayable",
      "type": "function"
    },
    {
      "constant": false,
      "inputs": [
        {
          "internalType": "bytes10",
          "name": "_tagID",
          "type": "bytes10"
        },
        {
          "internalType": "bytes8",
          "name": "_plateNo",
          "type": "bytes8"
        },
        {
          "internalType": "bytes2",
          "name": "_state",
          "type": "bytes2"
        },
        {
          "internalType": "enum DoonTaggle.Behaviors",
          "name": "_behavior",
          "type": "uint8"
        },
        {
          "internalType": "int256",
          "name": "_latitude",
          "type": "int256"
        },
        {
          "internalType": "int256",
          "name": "_longitude",
          "type": "int256"
        }
      ],
      "name": "fileReport",
      "outputs": [
        {
          "internalType": "bytes10",
          "name": "tag",
          "type": "bytes10"
        },
        {
          "internalType": "uint256",
          "name": "",
          "type": "uint256"
        }
      ],
      "payable": false,
      "stateMutability": "nonpayable",
      "type": "function"
    },
    {
      "constant": true,
      "inputs": [
        {
          "internalType": "bytes10",
          "name": "tagID",
          "type": "bytes10"
        }
      ],
      "name": "getRecentDriverReports",
      "outputs": [
        {
          "internalType": "uint256",
          "name": "numReturned",
          "type": "uint256"
        },
        {
          "internalType": "uint256[10]",
          "name": "reportNo",
          "type": "uint256[10]"
        },
        {
          "internalType": "address[10]",
          "name": "addresses",
          "type": "address[10]"
        },
        {
          "internalType": "enum DoonTaggle.Behaviors[10]",
          "name": "behaviors",
          "type": "uint8[10]"
        },
        {
          "internalType": "uint256[10]",
          "name": "timeReport",
          "type": "uint256[10]"
        },
        {
          "internalType": "int256[10]",
          "name": "latitude",
          "type": "int256[10]"
        },
        {
          "internalType": "int256[10]",
          "name": "longitude",
          "type": "int256[10]"
        }
      ],
      "payable": false,
      "stateMutability": "view",
      "type": "function"
    },
    {
      "constant": true,
      "inputs": [
        {
          "internalType": "bytes10",
          "name": "_tagID",
          "type": "bytes10"
        }
      ],
      "name": "getDriverScore",
      "outputs": [
        {
          "internalType": "uint256",
          "name": "",
          "type": "uint256"
        }
      ],
      "payable": false,
      "stateMutability": "view",
      "type": "function"
    },
    {
      "constant": true,
      "inputs": [],
      "name": "getTagCount",
      "outputs": [
        {
          "internalType": "uint256",
          "name": "",
          "type": "uint256"
        }
      ],
      "payable": false,
      "stateMutability": "view",
      "type": "function"
    },
    {
      "constant": true,
      "inputs": [
        {
          "internalType": "bytes10",
          "name": "_tagID",
          "type": "bytes10"
        }
      ],
      "name": "getReportCount",
      "outputs": [
        {
          "internalType": "uint256",
          "name": "",
          "type": "uint256"
        }
      ],
      "payable": false,
      "stateMutability": "view",
      "type": "function"
    },
    {
      "constant": true,
      "inputs": [
        {
          "internalType": "bytes10",
          "name": "_tagID",
          "type": "bytes10"
        },
        {
          "internalType": "uint256",
          "name": "_index",
          "type": "uint256"
        }
      ],
      "name": "getDriverReportByIndex",
      "outputs": [
        {
          "internalType": "enum DoonTaggle.Behaviors",
          "name": "",
          "type": "uint8"
        },
        {
          "internalType": "address",
          "name": "",
          "type": "address"
        },
        {
          "internalType": "uint256",
          "name": "",
          "type": "uint256"
        },
        {
          "internalType": "int256",
          "name": "",
          "type": "int256"
        },
        {
          "internalType": "int256",
          "name": "",
          "type": "int256"
        }
      ],
      "payable": false,
      "stateMutability": "view",
      "type": "function"
    }
  ],
  "bytecode": "0x608060405260008060146101000a81548160ff021916908315150217905550336000806101000a81548173ffffffffffffffffffffffffffffffffffffffff021916908373ffffffffffffffffffffffffffffffffffffffff160217905550611e1f8061006d6000396000f3fe608060405234801561001057600080fd5b50600436106100b45760003560e01c80638456cb59116100715780638456cb59146102f65780638da5cb5b14610300578063986f191c1461034a57806399862ca814610368578063f2fde38b146104dd578063fb8d0f3d14610521576100b4565b8063291a0548146101055780633f4ba83a146101605780635c975abb1461016a578063715018a61461018c57806374a5ab8014610196578063823383691461029b575b6040517f08c379a0000000000000000000000000000000000000000000000000000000008152600401808060200182810382526030815260200180611d976030913960400191505060405180910390fd5b61014a6004803603602081101561011b57600080fd5b81019080803575ffffffffffffffffffffffffffffffffffffffffffff191690602001909291905050506105dc565b6040518082815260200191505060405180910390f35b610168610693565b005b6101726107e5565b604051808215151515815260200191505060405180910390f35b6101946107f8565b005b61024c600480360360c08110156101ac57600080fd5b81019080803575ffffffffffffffffffffffffffffffffffffffffffff19169060200190929190803577ffffffffffffffffffffffffffffffffffffffffffffffff1916906020019092919080357dffffffffffffffffffffffffffffffffffffffffffffffffffffffffffff19169060200190929190803560ff1690602001909291908035906020019092919080359060200190929190505050610944565b604051808375ffffffffffffffffffffffffffffffffffffffffffff191675ffffffffffffffffffffffffffffffffffffffffffff191681526020018281526020019250505060405180910390f35b6102e0600480360360208110156102b157600080fd5b81019080803575ffffffffffffffffffffffffffffffffffffffffffff19169060200190929190505050611187565b6040518082815260200191505060405180910390f35b6102fe61123e565b005b610308611392565b604051808273ffffffffffffffffffffffffffffffffffffffff1673ffffffffffffffffffffffffffffffffffffffff16815260200191505060405180910390f35b6103526113b7565b6040518082815260200191505060405180910390f35b6103ad6004803603602081101561037e57600080fd5b81019080803575ffffffffffffffffffffffffffffffffffffffffffff19169060200190929190505050611426565b6040518088815260200187600a60200280838360005b838110156103de5780820151818401526020810190506103c3565b5050505090500186600a60200280838360005b8381101561040c5780820151818401526020810190506103f1565b5050505090500185600a60200280838360005b8381101561043a57808201518184015260208101905061041f565b5050505090500184600a60200280838360005b8381101561046857808201518184015260208101905061044d565b5050505090500183600a60200280838360005b8381101561049657808201518184015260208101905061047b565b5050505090500182600a60200280838360005b838110156104c45780820151818401526020810190506104a9565b5050505090500197505050505050505060405180910390f35b61051f600480360360208110156104f357600080fd5b81019080803573ffffffffffffffffffffffffffffffffffffffff169060200190929190505050611752565b005b6105706004803603604081101561053757600080fd5b81019080803575ffffffffffffffffffffffffffffffffffffffffffff1916906020019092919080359060200190929190505050611803565b6040518086600581111561058057fe5b60ff1681526020018573ffffffffffffffffffffffffffffffffffffffff1673ffffffffffffffffffffffffffffffffffffffff1681526020018481526020018381526020018281526020019550505050505060405180910390f35b60008060149054906101000a900460ff1615610643576040517f08c379a0000000000000000000000000000000000000000000000000000000008152600401808060200182810382526040815260200180611cef6040913960400191505060405180910390fd5b600160008375ffffffffffffffffffffffffffffffffffffffffffff191675ffffffffffffffffffffffffffffffffffffffffffff19168152602001908152602001600020600401549050919050565b6000809054906101000a900473ffffffffffffffffffffffffffffffffffffffff1673ffffffffffffffffffffffffffffffffffffffff163373ffffffffffffffffffffffffffffffffffffffff1614610738576040517f08c379a0000000000000000000000000000000000000000000000000000000008152600401808060200182810382526024815260200180611dc76024913960400191505060405180910390fd5b600060149054906101000a900460ff1661079d576040517f08c379a000000000000000000000000000000000000000000000000000000000815260040180806020018281038252603c815260200180611d5b603c913960400191505060405180910390fd5b60008060146101000a81548160ff0219169083151502179055507f7805862f689e2f13df9f062ff482ad3ad112aca9e0847911ed832e158c525b3360405160405180910390a1565b600060149054906101000a900460ff1681565b6000809054906101000a900473ffffffffffffffffffffffffffffffffffffffff1673ffffffffffffffffffffffffffffffffffffffff163373ffffffffffffffffffffffffffffffffffffffff161461089d576040517f08c379a0000000000000000000000000000000000000000000000000000000008152600401808060200182810382526024815260200180611dc76024913960400191505060405180910390fd5b6000809054906101000a900473ffffffffffffffffffffffffffffffffffffffff1673ffffffffffffffffffffffffffffffffffffffff167ff8df31144d9c2f0f6b59d69b8b98abd5459d07f2742c4df920b25aae33c6482060405160405180910390a260008060006101000a81548173ffffffffffffffffffffffffffffffffffffffff021916908373ffffffffffffffffffffffffffffffffffffffff160217905550565b600080600060149054906101000a900460ff16156109ad576040517f08c379a0000000000000000000000000000000000000000000000000000000008152600401808060200182810382526040815260200180611cef6040913960400191505060405180910390fd5b600115156109ba886119ad565b151514610a2f576040517f08c379a00000000000000000000000000000000000000000000000000000000081526004018080602001828103825260108152602001807f496e76616c696420506c617465204e6f0000000000000000000000000000000081525060200191505060405180910390fd5b60011515610a3c876119eb565b151514610ab1576040517f08c379a00000000000000000000000000000000000000000000000000000000081526004018080602001828103825260128152602001807f496e76616c696420537461746520436f6465000000000000000000000000000081525060200191505060405180910390fd5b60008062895440861380610ae457507fffffffffffffffffffffffffffffffffffffffffffffffffffffffffff76abc086125b80610af157506289544085135b80610b1b57507fffffffffffffffffffffffffffffffffffffffffffffffffffffffffff76abc085125b15610b2d576000915060009050610b34565b8591508490505b60008a90507f88fe4e13feb1137e5876e121df80e30f2ebacdc08a1b689a674553b5160dc6a081604051808275ffffffffffffffffffffffffffffffffffffffffffff191675ffffffffffffffffffffffffffffffffffffffffffff1916815260200191505060405180910390a1600160008275ffffffffffffffffffffffffffffffffffffffffffff191675ffffffffffffffffffffffffffffffffffffffffffff1916815260200190815260200160002060030160009054906101000a900460ff16610dfa5789600160008375ffffffffffffffffffffffffffffffffffffffffffff191675ffffffffffffffffffffffffffffffffffffffffffff1916815260200190815260200160002060000160006101000a81548167ffffffffffffffff021916908360c01c021790555088600160008375ffffffffffffffffffffffffffffffffffffffffffff191675ffffffffffffffffffffffffffffffffffffffffffff1916815260200190815260200160002060000160086101000a81548161ffff021916908360f01c02179055506000600160008375ffffffffffffffffffffffffffffffffffffffffffff191675ffffffffffffffffffffffffffffffffffffffffffff191681526020019081526020016000206004018190555060018060008375ffffffffffffffffffffffffffffffffffffffffffff191675ffffffffffffffffffffffffffffffffffffffffffff1916815260200190815260200160002060030160006101000a81548160ff0219169083151502179055506002600081548092919060010191905055507f809219ea8df88a51dc3d518c85f2ca125a4263095dbb25c98a45ed2b505c22638b600254604051808375ffffffffffffffffffffffffffffffffffffffffffff191675ffffffffffffffffffffffffffffffffffffffffffff191681526020018281526020019250505060405180910390a15b600160008275ffffffffffffffffffffffffffffffffffffffffffff191675ffffffffffffffffffffffffffffffffffffffffffff19168152602001908152602001600020600101600081548092919060010191905055506040518060a00160405280896005811115610e6957fe5b81526020013373ffffffffffffffffffffffffffffffffffffffff16815260200142815260200183815260200184815250600160008375ffffffffffffffffffffffffffffffffffffffffffff191675ffffffffffffffffffffffffffffffffffffffffffff191681526020019081526020016000206002016000600160008575ffffffffffffffffffffffffffffffffffffffffffff191675ffffffffffffffffffffffffffffffffffffffffffff1916815260200190815260200160002060010154815260200190815260200160002060008201518160000160006101000a81548160ff02191690836005811115610f5f57fe5b021790555060208201518160000160016101000a81548173ffffffffffffffffffffffffffffffffffffffff021916908373ffffffffffffffffffffffffffffffffffffffff160217905550604082015181600101556060820151816002015560808201518160030155905050610fd5886119fb565b600160008375ffffffffffffffffffffffffffffffffffffffffffff191675ffffffffffffffffffffffffffffffffffffffffffff19168152602001908152602001600020600401600082825401925050819055507f34b36682e5de361b7f41b9924aca447040371166efd0d7552bdc754646d8f723338b8b8b604051808573ffffffffffffffffffffffffffffffffffffffff1673ffffffffffffffffffffffffffffffffffffffff1681526020018477ffffffffffffffffffffffffffffffffffffffffffffffff191677ffffffffffffffffffffffffffffffffffffffffffffffff19168152602001837dffffffffffffffffffffffffffffffffffffffffffffffffffffffffffff19167dffffffffffffffffffffffffffffffffffffffffffffffffffffffffffff1916815260200182600581111561111557fe5b60ff16815260200194505050505060405180910390a180600160008375ffffffffffffffffffffffffffffffffffffffffffff191675ffffffffffffffffffffffffffffffffffffffffffff191681526020019081526020016000206001015494509450505050965096945050505050565b60008060149054906101000a900460ff16156111ee576040517f08c379a0000000000000000000000000000000000000000000000000000000008152600401808060200182810382526040815260200180611cef6040913960400191505060405180910390fd5b600160008375ffffffffffffffffffffffffffffffffffffffffffff191675ffffffffffffffffffffffffffffffffffffffffffff19168152602001908152602001600020600101549050919050565b6000809054906101000a900473ffffffffffffffffffffffffffffffffffffffff1673ffffffffffffffffffffffffffffffffffffffff163373ffffffffffffffffffffffffffffffffffffffff16146112e3576040517f08c379a0000000000000000000000000000000000000000000000000000000008152600401808060200182810382526024815260200180611dc76024913960400191505060405180910390fd5b600060149054906101000a900460ff1615611349576040517f08c379a0000000000000000000000000000000000000000000000000000000008152600401808060200182810382526040815260200180611cef6040913960400191505060405180910390fd5b6001600060146101000a81548160ff0219169083151502179055507f6985a02210a168e66602d3235cb6db0e70f92b3ba4d376a33c0f3d9434bff62560405160405180910390a1565b6000809054906101000a900473ffffffffffffffffffffffffffffffffffffffff1681565b60008060149054906101000a900460ff161561141e576040517f08c379a0000000000000000000000000000000000000000000000000000000008152600401808060200182810382526040815260200180611cef6040913960400191505060405180910390fd5b600254905090565b6000611430611c12565b611438611c35565b611440611c58565b611448611c12565b611450611c7b565b611458611c7b565b600060149054906101000a900460ff16156114be576040517f08c379a0000000000000000000000000000000000000000000000000000000008152600401808060200182810382526040815260200180611cef6040913960400191505060405180910390fd5b6000600160008a75ffffffffffffffffffffffffffffffffffffffffffff191675ffffffffffffffffffffffffffffffffffffffffffff19168152602001908152602001600020600101549050600080905060008290505b6000811180156115265750600a82105b1561172f57611533611c9e565b600160008d75ffffffffffffffffffffffffffffffffffffffffffff191675ffffffffffffffffffffffffffffffffffffffffffff1916815260200190815260200160002060020160008381526020019081526020016000206040518060a00160405290816000820160009054906101000a900460ff1660058111156115b557fe5b60058111156115c057fe5b81526020016000820160019054906101000a900473ffffffffffffffffffffffffffffffffffffffff1673ffffffffffffffffffffffffffffffffffffffff1673ffffffffffffffffffffffffffffffffffffffff16815260200160018201548152602001600282015481526020016003820154815250509050818a84600a811061164757fe5b60200201818152505080602001518984600a811061166157fe5b602002019073ffffffffffffffffffffffffffffffffffffffff16908173ffffffffffffffffffffffffffffffffffffffff168152505080600001518884600a81106116a957fe5b602002019060058111156116b957fe5b908160058111156116c657fe5b8152505080604001518784600a81106116db57fe5b60200201818152505080608001518684600a81106116f557fe5b60200201818152505080606001518584600a811061170f57fe5b602002018181525050828060010193505050808060019003915050611516565b508088888888888898509850985098509850985098505050919395979092949650565b6000809054906101000a900473ffffffffffffffffffffffffffffffffffffffff1673ffffffffffffffffffffffffffffffffffffffff163373ffffffffffffffffffffffffffffffffffffffff16146117f7576040517f08c379a0000000000000000000000000000000000000000000000000000000008152600401808060200182810382526024815260200180611dc76024913960400191505060405180910390fd5b61180081611ace565b50565b60008060008060008060149054906101000a900460ff1615611870576040517f08c379a0000000000000000000000000000000000000000000000000000000008152600401808060200182810382526040815260200180611cef6040913960400191505060405180910390fd5b611878611c9e565b600160008975ffffffffffffffffffffffffffffffffffffffffffff191675ffffffffffffffffffffffffffffffffffffffffffff1916815260200190815260200160002060020160008881526020019081526020016000206040518060a00160405290816000820160009054906101000a900460ff1660058111156118fa57fe5b600581111561190557fe5b81526020016000820160019054906101000a900473ffffffffffffffffffffffffffffffffffffffff1673ffffffffffffffffffffffffffffffffffffffff1673ffffffffffffffffffffffffffffffffffffffff168152602001600182015481526020016002820154815260200160038201548152505090508060000151816020015182604001518360800151846060015195509550955095509550509295509295909350565b6000808290506000600860ff16905060006001905060018210806119d15750600882115b156119df57600090506119e0565b5b809350505050919050565b6000806001905080915050919050565b600060016005811115611a0a57fe5b826005811115611a1657fe5b1415611a2557600a9050611ac9565b60026005811115611a3257fe5b826005811115611a3e57fe5b1415611a4d5760089050611ac9565b60036005811115611a5a57fe5b826005811115611a6657fe5b1415611a755760059050611ac9565b60046005811115611a8257fe5b826005811115611a8e57fe5b1415611a9d5760069050611ac9565b600580811115611aa957fe5b826005811115611ab557fe5b1415611ac45760049050611ac9565b600090505b919050565b600073ffffffffffffffffffffffffffffffffffffffff168173ffffffffffffffffffffffffffffffffffffffff161415611b54576040517f08c379a000000000000000000000000000000000000000000000000000000000815260040180806020018281038252602c815260200180611d2f602c913960400191505060405180910390fd5b8073ffffffffffffffffffffffffffffffffffffffff166000809054906101000a900473ffffffffffffffffffffffffffffffffffffffff1673ffffffffffffffffffffffffffffffffffffffff167f8be0079c531659141344cd1fd0a4f28419497f9722a3daafe3b4186f6b6457e060405160405180910390a3806000806101000a81548173ffffffffffffffffffffffffffffffffffffffff021916908373ffffffffffffffffffffffffffffffffffffffff16021790555050565b604051806101400160405280600a90602082028038833980820191505090505090565b604051806101400160405280600a90602082028038833980820191505090505090565b604051806101400160405280600a90602082028038833980820191505090505090565b604051806101400160405280600a90602082028038833980820191505090505090565b6040518060a0016040528060006005811115611cb657fe5b8152602001600073ffffffffffffffffffffffffffffffffffffffff168152602001600081526020016000815260200160008152509056fe5468652066756e6374696f6e206d61792062652063616c6c6564206f6e6c79207768656e2074686520636f6e7472616374206973206e6f74207061757365642e43616e6e6f74207472616e73666572204f776e65727368697020746f20616464726573732030783030302e2e5468652066756e6374696f6e206d61792062652063616c6c6564206f6e6c79207768656e2074686520636f6e7472616374206973207061757365642e46616c6c6261636b2066756e6374696f6e202d20726576657274656420616e7920457468657220746f2073656e64657246756e6374696f6e2063616e206f6e6c792062652063616c6c6564206279206f776e6572a265627a7a72315820e31f18507d4a19690d1eb4c9a15572faa3ffe22eef56e9ccaf1959bac7cff68564736f6c63430005100032",
  "source": "pragma solidity ^0.5.0;\r\n\r\n\r\n//Requirement: Use a library - supports ownership features\r\nimport \"./Ownable.sol\";\r\n\r\n\r\n//Requirement: Implement emergency stop design pattern.\r\n/**\r\n * @title Pausable\r\n * @dev Base contract which allows children to implement an emergency stop mechanism.\r\n */\r\ncontract Pausable is Ownable {\r\n    event Pause();\r\n    event Unpause();\r\n\r\n    bool public paused = false;\r\n\r\n\r\n    /**\r\n     * @dev Modifier to make a function callable only when the contract is not paused.\r\n     */\r\n    modifier whenNotPaused() {\r\n        require(!paused, \"The function may be called only when the contract is not paused.\");\r\n        _;\r\n    }\r\n\r\n    /**\r\n     * @dev Modifier to make a function callable only when the contract is paused.\r\n     */\r\n    modifier whenPaused() {\r\n        require(paused, \"The function may be called only when the contract is paused.\");\r\n        _;\r\n    }\r\n\r\n    /**\r\n     * @dev called by the owner to pause, triggers stopped state\r\n     */\r\n    function pause() public onlyOwner whenNotPaused {\r\n        paused = true;\r\n        emit Pause();\r\n    }\r\n\r\n    /**\r\n     * @dev called by the owner to unpause, returns to normal state\r\n     */\r\n    function unpause() public onlyOwner whenPaused {\r\n        paused = false;\r\n        emit Unpause();\r\n    }\r\n}\r\n\r\n\r\n/**\r\n * @title DriveAudit - Contract for recording driver behaviors and locations associated with License Tags\r\n */\r\ncontract DoonTaggle is Pausable {\r\n\r\n    mapping (bytes10 => Tag) private tags; //mapping key is of the form 2-letter state code and 8 alphacharacter plateno\r\n    uint private numTags; //count of the number of tags\r\n\r\n    enum Behaviors { None, Aggressive, Speeding, Proximity, Erratic, Hazard }\r\n\r\n    struct DriverReport {\r\n        Behaviors behavior;\r\n        address reportedBy;\r\n        uint entryTime; //time code of entry of the driver report\r\n        int longitude;\r\n        int latitude;\r\n    }\r\n\r\n    struct Tag {\r\n        bytes8 plateNo;\r\n        bytes2 state;\r\n        uint numReports;\r\n        mapping (uint => DriverReport) driverReports;\r\n        bool bExists; //So that we can tell if this tag in the mapping namespace is initialized\r\n        uint driverScore; //The total Driver Score\r\n    }\r\n\r\n    //Events\r\n    event LogReported (address reportedBy, bytes8 plateNo, bytes2 state, Behaviors behavior);\r\n    event LogNewTag (bytes10 tagID, uint numTags);\r\n    event LogPlateAccess (bytes10 tagID);\r\n\r\n    //Const\r\n    uint constant private MAX_RETURN = 10;\r\n    int constant private UPPER_BOUND_GEO = 90*1e5;\r\n    int constant private LOWER_BOUND_GEO = -90*1e5;\r\n\r\n    // Driver Score weightings related to the behavior types\r\n    uint constant private WT_AGGRESSIVE = 10;\r\n    uint constant private WT_SPEEDING = 8;\r\n    uint constant private WT_PROXIMITY = 5;\r\n    uint constant private WT_ERRATIC = 6;\r\n    uint constant private WT_HAZARD = 4;\r\n\r\n    /**\r\n     * @notice File a DriverReport on a specified Tag\r\n     * @dev File a DriverReport on a specified Tag\r\n     * @param _tagID The TagID of the vehicle's tag. BYTES10 composite of two-letter state code and up to 8 letter plate number\r\n     * @param _plateNo The plate number of the vehicle's tag - BYTES8\r\n     * @param _state The state of the vehicle's tag - BYTES2\r\n     * @param _behavior The reported behavior category - from BEHAVIORS enum\r\n     * @param _latitude The latitude of the geolocation of the report (converted to integer at 1e5 precision)\r\n     * @param _longitude The longitude of the geolocation of the report (converted to integer at 1e5 precision)\r\n     * @return key The TagID of the key in the mapping\r\n     * @return numReports The number of reports against this tag\r\n     */\r\n    function fileReport (bytes10 _tagID, bytes8 _plateNo, bytes2 _state, Behaviors _behavior, int _latitude, int _longitude)\r\n    external whenNotPaused\r\n    returns (bytes10 tag, uint) {\r\n\r\n        //Validate PlateNo and State using Library\r\n        require(SafeLicenseTags.validatePlateNoInternal(_plateNo)==true, \"Invalid Plate No\");\r\n        require(SafeLicenseTags.validateStateInternal(_state)==true, \"Invalid State Code\");\r\n\r\n        //Rather than failing, fix the latitude and longitude to zero if they are out of bounds\r\n        int latitude;\r\n        int longitude;\r\n        if (_latitude > UPPER_BOUND_GEO || _latitude < LOWER_BOUND_GEO || _longitude > UPPER_BOUND_GEO || _longitude < LOWER_BOUND_GEO) {\r\n            latitude = 0;\r\n            longitude = 0;\r\n        } else {\r\n            latitude = _latitude;\r\n            longitude = _longitude;\r\n        }\r\n\r\n        //Check to see if tag is already initialized.\r\n        //If not, set the tag data\r\n        //Then add the driver report to the tag\r\n        bytes10 key = _tagID;\r\n        emit LogPlateAccess (key);\r\n\r\n        if (!(tags[key].bExists)) {\r\n            tags[key].plateNo = _plateNo;\r\n            tags[key].state = _state;\r\n            tags[key].driverScore = 0;\r\n            tags[key].bExists = true;\r\n            numTags++;\r\n            emit LogNewTag (_tagID, numTags);\r\n        }\r\n        tags[key].numReports++;\r\n\r\n        //Note: only using \"now\" for approximate entryTime, not for fine-grained calculations\r\n        tags[key].driverReports[tags[key].numReports] = DriverReport(\r\n            {behavior: _behavior, reportedBy: msg.sender, entryTime: now, latitude: latitude, longitude: longitude});\r\n\r\n        //Add the behavior weight to the composite score\r\n        tags[key].driverScore += _getBehaviorWeight(_behavior);\r\n\r\n        emit LogReported (msg.sender, _plateNo, _state, _behavior);\r\n        return (key, tags[key].numReports);\r\n    }\r\n\r\n    /**\r\n     * @notice Get the most recent DriverReports about a specified Tag\r\n     * @dev Returns the most recent (up to MAX_RETURN (or less)) reports in LIFO order\r\n     * @param tagID the TagID of the vehicle's tag\r\n     * @return numReturned - the number of records returned\r\n     * @return arrays of length MAX_RETURN - reportNo, addresses, behaviors, timestamp, latitude, longitude\r\n     */\r\n    function getRecentDriverReports(bytes10 tagID) external view whenNotPaused\r\n    returns (\r\n    uint numReturned,\r\n    uint[MAX_RETURN] memory reportNo,\r\n    address[MAX_RETURN] memory addresses,\r\n    Behaviors[MAX_RETURN] memory behaviors,\r\n    uint[MAX_RETURN] memory timeReport,\r\n    int[MAX_RETURN] memory latitude,\r\n    int[MAX_RETURN] memory longitude ) {\r\n\r\n        uint nR = tags[tagID].numReports;\r\n        uint loopCount = 0;\r\n\r\n        //Return the Driver reports in reverse entry order\r\n        for (uint i = nR; (i > 0 && loopCount < MAX_RETURN); i--) {\r\n            DriverReport memory dr = tags[tagID].driverReports[i];\r\n            reportNo[loopCount] = i;\r\n            addresses[loopCount] = dr.reportedBy;\r\n            behaviors[loopCount] = dr.behavior;\r\n            timeReport[loopCount] = dr.entryTime;\r\n            latitude[loopCount] = dr.latitude;\r\n            longitude[loopCount] = dr.longitude;\r\n\r\n            loopCount++;\r\n        }\r\n        return (loopCount, reportNo, addresses, behaviors, timeReport, latitude, longitude);\r\n    }\r\n\r\n    /**\r\n     * @notice Get the driver score based on weighted composite of a Tag's associated Driver Reports.\r\n     * @dev Score is based on severity weighting of all the driver reports.\r\n     * @param _tagID The tagID of the vehicles tag (i.e., STATE code + PlateNo)\r\n     * @return uint Driver Score value of driver.\r\n     */\r\n    function getDriverScore(bytes10 _tagID) external view whenNotPaused returns (uint) {\r\n        return tags[_tagID].driverScore;\r\n    }\r\n\r\n    /**\r\n     * @notice Return the weight value of a behavior\r\n     * @dev Based on constants\r\n     * @param _behavior Behavior type from Behaviors enum\r\n     * @return uint Returns the Behavior weight\r\n     */\r\n    function _getBehaviorWeight(Behaviors _behavior) internal pure returns (uint) {\r\n        if (_behavior == Behaviors.Aggressive) {\r\n            return WT_AGGRESSIVE;\r\n        } else if (_behavior == Behaviors.Speeding) {\r\n            return WT_SPEEDING;\r\n        } else if (_behavior == Behaviors.Proximity) {\r\n            return WT_PROXIMITY;\r\n        } else if (_behavior == Behaviors.Erratic) {\r\n            return WT_ERRATIC;\r\n        } else if (_behavior == Behaviors.Hazard) {\r\n            return WT_HAZARD;\r\n        } else {\r\n            return 0;\r\n        }\r\n    }\r\n\r\n    /**\r\n     * @notice Get the total number of Tags\r\n     * @dev Accessor function for the private state variable numTags\r\n     * @return uint Number of Tags in the DriveAudit registry.\r\n     */\r\n    function getTagCount() external view whenNotPaused returns (uint) {\r\n        return numTags;\r\n    }\r\n\r\n    /**\r\n     * @notice Get the total number of DriverReports in the specified Tag.\r\n     * @dev TagID in BYTES10 form.\r\n     * @param _tagID the TagID of the vehicle's tag.\r\n     * @return numReports Number of reports on this Tag.\r\n     */\r\n    function getReportCount(bytes10 _tagID) external view whenNotPaused\r\n    returns (uint) {\r\n        return tags[_tagID].numReports;\r\n    }\r\n\r\n    /**\r\n     * @notice Get a specific DriverReport about a specified Tag\r\n     * @param _tagID the TagID of the vehicle's tag\r\n     * @param _index the number of the driver report\r\n     * @return the members of the DriverReport struct\r\n     */\r\n    function getDriverReportByIndex(bytes10 _tagID, uint _index) external view whenNotPaused\r\n    returns (Behaviors, address, uint, int, int) {\r\n        DriverReport memory dr = tags[_tagID].driverReports[_index];\r\n        return (dr.behavior, dr.reportedBy, dr.entryTime, dr.latitude, dr.longitude);\r\n    }\r\n\r\n    /**\r\n     * @notice Kill the contract and send funds to owner\r\n     * @dev Can only be called by owner, when paused\r\n     */\r\n/*    function terminateContract() public onlyOwner whenPaused {\r\n        selfdestruct(owner);\r\n    }\r\n*/\r\n    /**\r\n     * @notice DriverReport fallback function\r\n     * @dev  Fallback function, called if other functions don't match call or Ether is sent without data.\r\n     * @dev Ether sent to this contract is reverted to sender.\r\n     * @dev Typically, called when invalid data is sent.\r\n     */\r\n    function () external {\r\n        revert(\"Fallback function - reverted any Ether to sender\");\r\n    }\r\n}\r\n\r\n\r\n/**\r\n * @title SafeLicenseTags validation library for validating the form of License Tag data\r\n * @notice Validates that a Plate No. and State of Issuance are valid entries\r\n */\r\nlibrary SafeLicenseTags {\r\n    /**\r\n     * @notice Check if PlateNo input is reasonable choice.\r\n     * @param _plateNo the plate number to check in BYTES8\r\n     * @return True IFF `_plateNo` meets the criteria below, or false otherwise:\r\n        ///   no fewer than 1 character\r\n        ///   - no more than 8 characters\r\n        ///   - no characters other than:\r\n        ///     - \"roman\" alphabet letters (A-Z and a-z)\r\n        ///     - western digits (0-9)\r\n        ///     - \"safe\" punctuation: ! ( ) - . _ SPACE\r\n        /// Note that we deliberately exclude characters which may cause\r\n        /// security problems for websites and databases if escaping is\r\n        /// not performed correctly, such as < > \" and '.\r\n        /// Apologies for the lack of non-English language support.\r\n     */\r\n    function validatePlateNoInternal(bytes8 _plateNo)\r\n    internal pure\r\n    returns (bool allowed) {\r\n        bytes8 nameBytes = _plateNo;\r\n        uint lengthBytes = nameBytes.length;\r\n        bool ok = true;\r\n        if (lengthBytes < 1 || lengthBytes > 8) {\r\n            ok = false;\r\n        } else {\r\n/*            for (uint i = 0; i < lengthBytes; i++) {\r\n                //byte b = nameBytes[i];\r\n                uint b = nameBytes[i];\r\n                if (!((b >= 48 && b <= 57) || // 0 - 9\r\n                    (b >= 65 && b <= 90) || // A - Z\r\n                    (b >= 97 && b <= 122) ||   // a - z\r\n                    b == 32 || // space\r\n                    b == 33 || // !\r\n                    b == 45 ||  // -\r\n                    b == 46 ||    // .\r\n                    b == 0\r\n                )) {\r\n                    ok = false;\r\n                    break;\r\n                }\r\n            } */\r\n        }\r\n        return ok;\r\n    }\r\n\r\n    /**\r\n     * @notice Check if state input is reasonable choice.\r\n     * @param _state the plate's state of issueance to check in BYTES2\r\n     * @return True if-and-only-if `_state` meets the criteria below, or false otherwise:\r\n        ///     - no characters other than:\r\n        ///     - \"roman\" alphabet letters, capitalized (A-Z)\r\n     */\r\n    function validateStateInternal (bytes2 _state)\r\n    internal pure\r\n    returns (bool allowed) {\r\n        bool ok = true;\r\n/*        for (uint i = 0; i < 2; i++) {\r\n            byte b = _state[i];\r\n            if (!((b >= 65 && b <= 90))) {\r\n                ok = false;\r\n                break;\r\n            }\r\n        } */\r\n        return ok;\r\n    }\r\n}\r\n\r\n\r\n\r\n",
  "sourcePath": "/mnt/d/Development/DoonTaggle/doontaggle-app/contracts/DoonTaggle.sol",
  "compiler": {
    "name": "solc",
    "version": "0.5.16+commit.9c3226ce.Emscripten.clang"
  },
  "schemaVersion": "3.2.0",
  "updatedAt": "2020-06-15T19:27:13.215Z",
  "networkType": "ethereum",
  "devdoc": {
    "methods": {
      "fileReport(bytes10,bytes8,bytes2,uint8,int256,int256)": {
        "details": "File a DriverReport on a specified Tag",
        "params": {
          "_behavior": "The reported behavior category - from BEHAVIORS enum",
          "_latitude": "The latitude of the geolocation of the report (converted to integer at 1e5 precision)",
          "_longitude": "The longitude of the geolocation of the report (converted to integer at 1e5 precision)",
          "_plateNo": "The plate number of the vehicle's tag - BYTES8",
          "_state": "The state of the vehicle's tag - BYTES2",
          "_tagID": "The TagID of the vehicle's tag. BYTES10 composite of two-letter state code and up to 8 letter plate number"
        },
        "return": "key The TagID of the key in the mappingnumReports The number of reports against this tag"
      },
      "getDriverReportByIndex(bytes10,uint256)": {
        "params": {
          "_index": "the number of the driver report",
          "_tagID": "the TagID of the vehicle's tag"
        },
        "return": "the members of the DriverReport struct"
      },
      "getDriverScore(bytes10)": {
        "details": "Score is based on severity weighting of all the driver reports.",
        "params": {
          "_tagID": "The tagID of the vehicles tag (i.e., STATE code + PlateNo)"
        },
        "return": "uint Driver Score value of driver."
      },
      "getRecentDriverReports(bytes10)": {
        "details": "Returns the most recent (up to MAX_RETURN (or less)) reports in LIFO order",
        "params": {
          "tagID": "the TagID of the vehicle's tag"
        },
        "return": "numReturned - the number of records returnedarrays of length MAX_RETURN - reportNo, addresses, behaviors, timestamp, latitude, longitude"
      },
      "getReportCount(bytes10)": {
        "details": "TagID in BYTES10 form.",
        "params": {
          "_tagID": "the TagID of the vehicle's tag."
        },
        "return": "numReports Number of reports on this Tag."
      },
      "getTagCount()": {
        "details": "Accessor function for the private state variable numTags",
        "return": "uint Number of Tags in the DriveAudit registry."
      },
      "pause()": {
        "details": "called by the owner to pause, triggers stopped state"
      },
      "renounceOwnership()": {
        "details": "Allows the current owner to relinquish control of the contract."
      },
      "transferOwnership(address)": {
        "details": "Allows the current owner to transfer control of the contract to a newOwner.",
        "params": {
          "_newOwner": "The address to transfer ownership to."
        }
      },
      "unpause()": {
        "details": "called by the owner to unpause, returns to normal state"
      }
    },
    "title": "DriveAudit - Contract for recording driver behaviors and locations associated with License Tags"
  },
  "userdoc": {
    "methods": {
      "fileReport(bytes10,bytes8,bytes2,uint8,int256,int256)": {
        "notice": "File a DriverReport on a specified Tag"
      },
      "getDriverReportByIndex(bytes10,uint256)": {
        "notice": "Get a specific DriverReport about a specified Tag"
      },
      "getDriverScore(bytes10)": {
        "notice": "Get the driver score based on weighted composite of a Tag's associated Driver Reports."
      },
      "getRecentDriverReports(bytes10)": {
        "notice": "Get the most recent DriverReports about a specified Tag"
      },
      "getReportCount(bytes10)": {
        "notice": "Get the total number of DriverReports in the specified Tag."
      },
      "getTagCount()": {
        "notice": "Get the total number of Tags"
      },
      "renounceOwnership()": {
        "notice": "Renouncing to ownership will leave the contract without an owner. It will not be possible to call the functions with the `onlyOwner` modifier anymore."
      }
    }
  }
}